:020000040800F2
:1000000088FC00209D010008AB3C0008AF380008C8
:10001000953C000821180008C545000800000000B4
:100020000000000000000000000000009D3F0008EC
:100030004D19000800000000AD3C0008C94200084E
:10004000B7010008B7010008B7010008B7010008B0
:10005000B7010008B7010008B7010008B7010008A0
:10006000B7010008B7010008B7010008B701000890
:10007000B7010008B7010008B7010008B701000880
:10008000B7010008B7010008D9080008B701000847
:10009000B7010008B7010008B7010008B701000860
:1000A000B7010008B7010008B7010008B701000850
:1000B0003943000861430008B7010008B701000890
:1000C000B7010008B7010008B7010008B701000830
:1000D000B7010008B7010008B7010008B701000820
:1000E000CD250008B7010008B7010008B7010008D6
:1000F000B7010008B7010008B7010008B701000800
:10010000B7010008B7010008B7010008B7010008EF
:10011000B7010008B7010008B7010008B7010008DF
:10012000B7010008B7010008B7010008B7010008CF
:10013000B7010008B7010008B7010008B7010008BF
:10014000B7010008B7010008B7010008B7010008AF
:10015000B7010008B7010008B7010008B70100089F
:10016000B7010008B7010008B7010008B70100088F
:10017000B7010008B7010008B7010008B70100087F
:10018000B7010008B7010008DFF80CD000F060FBF1
:1001900000480047A594000888FC002006488047D6
:1001A00006480047FEE7FEE7FEE7FEE7FEE7FEE75C
:1001B000FEE7FEE7FEE7FEE7D142000889010008FE
:1001C00040EA01039B0703D009E008C9121F08C0D9
:1001D000042AFAD203E011F8013B00F8013B521E59
:1001E000F9D27047D2B201E000F8012B491EFBD2D0
:1001F00070470022F6E710B513460A460446194632
:10020000FFF7F0FF204610BD421C10F8011B00292B
:10021000FBD1801A704730B504460020034600E049
:100220005B1C934203D2E05CCD5C401BF8D030BD38
:100230002DE9FE4F804681EA0300C00F0C46009076
:1002400021F0004123F00045B8EB0200A94105D29E
:100250004046214690461C460B46024623F000408D
:10026000104347D0270DC7F30A00C3F30A51029089
:10027000401A019040286BDAC3F3130040F4801B4E
:100280000098924620B10023D2EB030A63EB0B0BDC
:1002900001985946C0F14002504600F0E5F9064683
:1002A0000D4650465946019A00F0FDF910EB080042
:1002B0006141002487EA115284EAE7731A4340D06F
:1002C000009A62B3019A012A4FEA075215DC001B1B
:1002D00061EB02014FF0004202EA0752CDE9004211
:1002E000001C41F5801132462B4600F0FBF903B0AB
:1002F000BDE8F08F40462146F9E7001B61EB0201A3
:10030000001C41F5801300185B412018A2F500176E
:1003100047EB030140EAD570B6196D4111E06D0855
:100320004FEA360645EAC0754FEA0752001B61EBFB
:100330000201001C41F5801149084FEA3000001904
:10034000514132462B4603B0BDE8F04F00F0BDB935
:100350000098012240000023D0EB020263EBE0731F
:10036000009821464FEAE074B8EB000061EB04010D
:10037000E9E783F000435BE781F0004158E72DE9AE
:10038000FE4F81EA030404F0004421F00041009490
:100390004FF0000B23F0004350EA01045ED052EA14
:1003A00003045BD0C3F30A54C1F30A552C44A4F2EE
:1003B000F3340194A0FB0254C1F3130141F4801102
:1003C000C3F3130343F4801301FB024400FB034E09
:1003D000840A970A44EA815447EA8357A4FB0768D2
:1003E00002958D0A05FB07854FEA932C04FB0C54FC
:1003F0002705029D4FEA065847EA1637B5EB080570
:100400006EEB070C870E920E47EA811742EA8312C1
:10041000A7FB0201B6EB0B0164EB00042B0D43EAD2
:100420000C335E1844EB1C50DA465146E7FB0201E0
:10043000C5F313044FEA0B3343EA14534FEA043273
:10044000019C43EA0603A4F10C040294009CCDE94C
:1004500000B400F047F903B0BDE8F08F002001467A
:10046000F9E72DE9F04D81EA030404F0004B21F097
:10047000004514464FF0000A23F0004150EA0502FF
:1004800020D054EA01021DD0C5F30A570246C5F335
:100490001303C1F31300C1F30A5640F4801543F46B
:1004A0008013A7EB0608101BD64608F2FD3873EB45
:1004B000050002D308F1010801E092185B41B8F190
:1004C000000F03DA00200146BDE8F08D00204FF454
:1004D0008011064684460EE0171B73EB050705D313
:1004E000121B63EB050306434CEA010C49084FEA73
:1004F000300092185B4150EA0107EDD152EA030047
:1005000012D082EA040083EA0501084305D0101BDB
:10051000AB4106D20122002306E000224FF0004347
:1005200002E06FF0010253101AEB06004CEB085189
:1005300010EB0A0041EB0B01BDE8F04D00F0C5B82F
:100540000EB5C10F80EAE0700844CA07002140F2EE
:1005500033438DE80E000A460B4600F0C3F803B0A3
:1005600000BD0EB540F2334102910021CDE90011EA
:100570000A460B4600F0B6F803B000BD70B5C1F3F3
:100580000A5201F000450024C1F3130140F2FF3389
:1005900041F480119A4201DA002070BD40F23343E9
:1005A0009A42A2F2334203DC524200F06CF800E0BF
:1005B00090402C43F1D0404270BDC1F30A5210B5B7
:1005C000C1F3130140F2FF3341F480119A4201DA82
:1005D000002010BD40F233439A42A2F2334203DCC2
:1005E000524200F050F810BD904010BD30B50029C7
:1005F00004DB4FF00044404264EB0101002B04DBBC
:100600004FF00044524264EB03038B4208BF824226
:1006100030BD000030B5002904DB4FF000444042FB
:1006200064EB0101002B04DB4FF00044524264EB09
:100630000303994208BF904230BD000030B50B461D
:10064000014600202022012409E021FA02F59D4202
:1006500005D303FA02F5491B04FA02F52844151ED6
:10066000A2F10102F1DC30BD202A04DB203A00FABD
:1006700002F1002070479140C2F1200320FA03F3F9
:10068000194390407047202A04DB203A21FA02F0F7
:100690000021704721FA02F3D040C2F120029140BC
:1006A000084319467047202A06DBCB17203A41FA47
:1006B00002F043EAE07306E041FA02F3D040C2F1EF
:1006C0002002914008431946704710B5002B08DA04
:1006D000401C41F1000192185B411A4301D120F006
:1006E000010010BD2DE9F04D92469B4611B1B1FAC3
:1006F00081F202E0B0FA80F220329046FFF7B4FFB8
:1007000004460F4640EA0A0041EA0B0153465A46A6
:10071000084313D0114653EA010019D0C8F1400232
:100720005046FFF7B0FF05460E4650465946424632
:10073000FFF79AFF084305D0012004E02046394620
:10074000BDE8F08D0020054346EAE0762C433743B0
:100750000A986305E40AA0EB08000022FD0A44EAB7
:1007600047540A3002D500200146E9E70105101977
:100770006941DDE9084500196941BDE8F04DA4E78C
:1007800070B521F0004303430CD0C1F30A55002497
:10079000D5EB040564EB0403D617AD1AB34102DBB5
:1007A0000020014670BD201841EB025170BD2DE9BB
:1007B000F04D00231A461B1A8A4103DB0020014634
:1007C000BDE8F08DC1F30A52C1F3130141F4801565
:1007D0004FF0000BD10702D100186D41521E0027C7
:1007E000044640F2FF11384601EB620A3E4680465D
:1007F000024600204FF48011FFF745FFC2197141F6
:10080000BB1846EB0100B4EB030C75EB000C04D3F2
:10081000E41A65EB000517460E46241908F101009D
:100820006D4180463428E3DDF91946EB0600091BCB
:10083000A84103D24FF0FF32134601E000221346D5
:100840001BEB070046EB0A51BDE8F04DFFF73DBF3B
:10085000064C074D06E0E06840F0010394E807000D
:1008600098471034AC42F6D3FFF792FCA8FD00087D
:10087000C8FD000870B58C1810F8015B15F007036F
:1008800001D110F8013B2A1106D110F8012B03E029
:1008900010F8016B01F8016B5B1EF9D12B0705D431
:1008A0000023521E0DD401F8013BFAE710F8013B7A
:1008B000CB1A921C03E013F8015B01F8015B521E96
:1008C000F9D5A142D8D3002070BD000001480088AE
:1008D00070470000FC0200200B48006800F0020096
:1008E00080B109484C300068C0F30B00074908800C
:1008F0000120074908700748D0F8000220F00200E4
:10090000014908607047000000220140FC020020FD
:10091000FE020020002001403148006840F4806061
:100920002F4908602E481438006840F020002C49F8
:10093000143908602B48006840F4402029490860B9
:100940000020294908602949C1F8300207202649BA
:100950000831086080012449203908600020091D01
:10096000086088152149C1F804020846D0F8080239
:1009700040F00800C1F8080200BF1B482438006896
:1009800000F008000028F8D117482438006840F02B
:1009900004001649C1F8080200BF13482438006853
:1009A00000F004000028F8D10F482838006840F013
:1009B00020000E49C1F804021220012181404209A1
:1009C000920002F1E022C2F8001100BF0748D0F8FF
:1009D000080240F001000549C1F808027047000014
:1009E00044380240001402402C2201400020014003
:1009F0000020054908700548006840F0804004491F
:100A0000C1F8080270470000FE02002008220140E1
:100A10000020014010B50020F6490870F648007823
:100A2000012800D110BDF5480068642803D90420CE
:100A3000F34908701AE0F1480068502803D90320F0
:100A4000EF49087012E0ED480068282803D9022019
:100A5000EB4908700AE0E9480068142803D901202E
:100A6000E749087002E00020E5490870E548007891
:100A7000012870D1E448007806286DD2DFE800F044
:100A80006C0339717F8BE1480078D0B9D948007880
:100A900001280BD14FF48270DD490860D8480078F6
:100AA00001280EDB0120D94908700AE04FF48C7050
:100AB000D7490860D2480078022802DB0120D349D8
:100AC0000870D2480078012812D1CD480078042857
:100AD0000BDBC8480078012803D1DC20CC49086032
:100AE00006E0C820CA49086002E0F020C849086052
:100AF00008E1C6480078C0B9BE48007801280AD18C
:100B0000DC20C3490860BE48007801280DDB0120C5
:100B1000BE49087009E0DC20BD490860B84800788B
:100B2000022802DB0120B9490870B8480078012882
:100B300016D1B348007804280FDBAE4800780128AE
:100B400004D14FF48270B249086009E04FF48C7010
:100B5000AF49086004E0D6E0D3E0F020AC4908607B
:100B6000D0E0A4480078012804D14FF48C70A84943
:100B7000086003E04FF49670A5490860C2E09D4804
:100B80000078012803D1C820A149086002E0B42000
:100B90009F490860B6E09D480078012802D10020F6
:100BA0009A4908709B48007801284AD194480078F7
:100BB000032821DB8F480078012802D19049087072
:100BC00002E002208E49087093480078012809D17C
:100BD0008B48007800EB8000F02101EB80008C490D
:100BE00008608DE08648007800EB8000F021A1EBE2
:100BF00080008749086083E08848006814281CD971
:100C00008748007801280BD183480078012803D158
:100C1000F0207F49086073E0DC207D4908606FE0C8
:100C20007D480078012804D14FF48270784908602B
:100C300066E0F0207649086062E0F02074490860C0
:100C40005EE07848007801285AD16D480078022883
:100C500021DB68480078012802D16949087002E068
:100C60000220674908706C480078012809D164485F
:100C7000007800EB8000F021A1EB8000644908605F
:100C80003EE05F48007800EB8000F02101EB80003F
:100C90005F49086034E0614800680A282DD960483F
:100CA0000078012813D15C48007801280BD1514805
:100CB0000078012803D1DC205549086020E0C820D5
:100CC000534908601CE0F0205149086018E0524880
:100CD0000078012803D1F0204D49086010E0454814
:100CE0000078012804D14FF482704949086007E078
:100CF0004FF48C704649086002E0F02044490860D7
:100D000000E000BFD2E248480078012870D13E4898
:100D1000007806286DD2DFE800F06C03398E9AA8BF
:100D20003A480078C0B93348007801280AD17820C1
:100D3000374908603248007802280DDB012033492A
:100D4000087009E07820324908602D4800780228B0
:100D500002DB01202D4908702C480078012814D1AD
:100D60002748007804280DDB22480078012804D1A8
:100D70004FF4A0702649086007E04FF4B47024498E
:100D8000086002E0A0202249086027E11F4800789F
:100D9000D0B91848007801280BD14FF4B4701C4921
:100DA00008601748007802280EDB012017490870F8
:100DB0000AE04FF4B4701649086011480078022820
:100DC00002DB01201149087010480078012831D158
:100DD0000B480078042829DB06480078012803D155
:100DE000A0200B49086025E078200949086021E02F
:100DF000F5E0F2E0D802002019000020C800002031
:100E0000E002002002000020D6000020DC000020CC
:100E1000D80000201B000020D0000020CC000020C3
:100E2000D50000201C000020030000204FF4A0701B
:100E3000FE490860D2E0FE480078012803D17820FE
:100E4000FA49086002E07820F8490860C6E0F848EE
:100E50000078012804D14FF4B470F449086003E02D
:100E60004FF4B470F1490860B8E0F2480078012806
:100E700002D10020EF490870EF48007801284BD1DB
:100E8000EE480078022822DBE9480078012803D1E7
:100E90000220EA49087002E00320E8490870E848A7
:100EA0000078012809D1E548007800EB8000F021A6
:100EB000A1EBC000DD4908608EE0E048007800EB5F
:100EC0008000F02101EBC000D849086084E0DD48D3
:100ED000006814281CD9DC48007801280CD1D848B7
:100EE0000078012803D1F020D049086074E04FF465
:100EF000B470CE4908606FE0D1480078012803D172
:100F00007820CA49086067E0F020C849086063E0BB
:100F1000F020C64908605FE0CC48007801285BD12A
:100F2000C6480078022822DBC1480078012803D196
:100F30000320C249087002E00320C0490870C0487D
:100F40000078012809D1BD48007800EB8000F0212D
:100F500001EBC000B54908603EE0B848007800EBFE
:100F60008000F021A1EBC000B049086034E0B54832
:100F700000680A282DD9B4480078012815D1B04856
:100F8000007801280DD1AA480078012804D14FF437
:100F9000A070A64908601FE04FF4B470A349086030
:100FA0001AE0F020A149086016E0A5480078012861
:100FB00003D1F0209D4908600EE09D48007801288B
:100FC00003D1A0209949086006E07820974908607D
:100FD00002E0F0209549086000E000BF66E19C480F
:100FE0000078062871D2DFE800F070033A717F8B39
:100FF00090480078D0B98E48007801280BD14FF482
:10100000B4708A4908608D48007802280EDB012000
:10101000884908700AE04FF4B47084490860874832
:101020000078022802DB012082490870814800789C
:10103000012813D18148007804280BDB7C48007814
:10104000012803D1A0207949086007E0782077497A
:10105000086003E04FF4A0707449086025E175480A
:101060000078C0B97248007801280AD178206F4909
:1010700008607248007802280DDB01206D49087075
:1010800009E07820694908606C480078022802DB92
:1010900001206849087067480078012814D1674822
:1010A000007804280DDB62480078012804D14FF451
:1010B000A0705E49086007E04FF4B4705B490860B7
:1010C00002E0A02059490860EFE0EDE058480078C0
:1010D000012804D14FF4B4705449086003E04FF480
:1010E000B47052490860E0E051480078012803D10B
:1010F00078204E49086002E078204C490860D4E02E
:1011000054A003F099FB4B480078012802D100203D
:10111000484908704848007801284BD14748007872
:10112000022822DB42480078012803D102204349EB
:10113000087002E003204149087041480078012806
:1011400009D13E48007800EB8000F02101EBC0009F
:1011500036490860A7E03948007800EB8000F021AC
:10116000A1EBC000314908609DE0364800681428B2
:101170001CD93548007801280BD131480078012866
:1011800003D1F020294908608DE0782027490860C4
:1011900089E02B480078012804D14FF4B47023492A
:1011A000086080E0F020214908607CE0F0201F49C1
:1011B000086078E025480078012874D11F4800783D
:1011C000022822DB1A480078012803D103201B499A
:1011D000087002E0032019490870194800780128B6
:1011E00009D11648007800EB8000F021A1EBC00087
:1011F0000E49086057E01148007800EB8000F021AC
:1012000001EBC000094908604DE00E4800680A285B
:1012100046D90D48007801282CD1094800780128CA
:1012200024D10348007801281CD117E0D800002001
:10123000D8020020DC0000201B000020E00200207B
:10124000D0000020CC000020D50000201C00002091
:10125000D60000207374617465350000A020154924
:10126000086020E07820134908601CE0F020114954
:10127000086018E010480078012803D1F0200D49DB
:10128000086010E00D480078012804D14FF4A070E8
:101290000849086007E04FF4B4700649086002E0AE
:1012A000F0200449086000E000BF00BF00BFFFF766
:1012B000B9BB0000D8000020D0000020D8020020D8
:1012C0000348006803490860014840684860704767
:1012D0000C3F0020040A002010B52DED028BFA48C7
:1012E000007801287ED10020F7490870F74890ED7A
:1012F000000B53EC102BF64890ED000B51EC100B4B
:10130000FFF788F915D2F14890ED000B53EC102B44
:10131000EF4890ED000B51EC100BFFF72AF841EC71
:10132000180BFFF74AF9EB4908600120EA490870F9
:1013300014E0E74890ED000B53EC102BE34890EDE0
:10134000000B51EC100BFFF714F841EC180BFFF7F2
:1013500034F9E04908600020DF490870DF48007870
:10136000012875D1DE4890ED000B53EC102BD748C7
:1013700090ED000B51EC100BFFF738F918D201205B
:10138000D84908700020D8490870D04890ED000B6B
:1013900053EC102BD54890ED000B51EC100BFEF7E1
:1013A000E8FF41EC180BFFF708F9D1490860F3E0BA
:1013B000D04890ED000B53EC102BC44890ED000B7F
:1013C00051EC100BFFF726F91AD20020C54908701E
:1013D0000120C5490870C54890ED000B53EC102B57
:1013E000BA4800E000E290ED000B51EC100BFEF764
:1013F000C0FF41EC180BFFF7E0F8BD490860CBE0F7
:101400000020B8490870B8490870B84890ED000B42
:1014100053EC102BAD4890ED000B51EC100BFFF787
:10142000F9F816D20120B4490870B04890ED000BCD
:1014300053EC102BA54890ED000B51EC100BFEF770
:1014400098FF41EC180BFFF7B8F8A9490860A3E032
:1014500015E00020A84908709C4890ED000B53EC63
:10146000102BA24890ED000B51EC100BFEF781FF02
:1014700041EC180BFFF7A1F89D4908608CE09F48EC
:101480000078012824D19E4890ED000B53EC102BDE
:101490008F4890ED000B51EC100BFFF7A7F818D216
:1014A000012098490870002097490870884890EDFD
:1014B000000B53EC102B8D4890ED000B51EC100BF2
:1014C000FEF757FF41EC180BFFF777F888490860E3
:1014D00062E08E4890ED000B53EC102B7C4890EDB1
:1014E000000B51EC100BFFF795F818D2002085493E
:1014F00008700120844908707C4890ED000B53EC83
:10150000102B734890ED000B51EC100BFEF731FFE0
:1015100041EC180BFFF751F8754908603CE00020DA
:101520007849087078490870704890ED000B53ECCA
:10153000102B674890ED000B51EC100BFFF76AF889
:1015400015D201206C490870684890ED000B53ECEF
:10155000102B5F4890ED000B51EC100BFEF709FFCC
:1015600041EC180BFFF729F86149086014E00020EE
:1015700061490870564890ED000B53EC102B5B4806
:1015800090ED000B51EC100BFEF7F3FE41EC180B45
:10159000FFF713F8564908609FED5D0B53EC102BD5
:1015A0004A4890ED000B51EC100BFFF733F80BD3CA
:1015B0009FED570B53EC102B454890ED000B51EC71
:1015C000100BFFF727F850D29FED530B53EC102B65
:1015D0003E4890ED000B51EC100BFFF707F80BD0D5
:1015E0009FED4D0B53EC102B394890ED000B51EC57
:1015F000100BFEF7FBFF1DD149480078D0B94948D0
:101600000068401C47490860002047490860454879
:10161000006832280DD9002042490860434800780C
:1016200040F00200414908700846007820F00100AF
:101630000870D0E03C480068401C3B49086000202E
:10164000384908603848006814280DD90020364908
:1016500008603648007840F00200344908700846B7
:10166000007820F001000870B5E09FED310B53ECDD
:10167000102B164890ED000B51EC100BFEF7B6FF47
:101680000BD39FED2B0B53EC102B114890ED000B5F
:1016900051EC100BFEF7AAFF4ED223480068401C05
:1016A000214908600846006814280CD90020086009
:1016B0001E48007840F001001C4908700846007878
:1016C00020F00200087086E00000002008000020E2
:1016D00010000020C8000020D00000201B000020C7
:1016E00090000020D1000020D200002078000020CF
:1016F000CC00002098000020D50000201C00002015
:1017000080000020D3000020D400002088000020AA
:101710000000000000209C400000000000000000CD
:10172000B8000020C0000020BC000020AC00002059
:101730000000000000407F409FED2D0B53EC102B6C
:101740002D4890ED000B51EC100BFEF74FFF42D2ED
:101750009FED2A0B53EC102B274890ED000B51EC1A
:10176000100BFEF757FF36D29FED210B53EC102BD9
:10177000244890ED000B51EC100BFEF737FF2AD2F6
:101780009FED1E0B53EC102B1E4890ED000B51ECFF
:10179000100BFEF73FFF1ED200201B4908601B49BB
:1017A00008601B48007820F00100194908700846BD
:1017B000007820F00200087016480068401C1549A7
:1017C0000860084600680A2805D9012012490870F7
:1017D0000020104908600120104908700C4800786A
:1017E00020F004000A490870BDEC028B10BD000017
:1017F0000000000000F89B400800002000000000EE
:1018000000E07F4010000020BC000020C00000204D
:10181000AC000020C4000020B8000020B700002069
:1018200000BFFEE7704700002DE9F0414FF4004192
:10183000384802F02EF804462021374802F029F8F3
:1018400005461021354802F024F806462021334889
:1018500002F01FF8074674B9012D0CD1012F0AD1EF
:10186000012E08D12E49087000202E4908702E49FB
:1018700008702E49087085B9012C0ED1012F0CD1AA
:10188000012E0AD10020264908702649087001203F
:1018900025490870002025490870D6B9012C18D1B7
:1018A000012D16D1012F14D10120204908701D49A6
:1018B000087000201E4908801E4908701E490870E3
:1018C0001E49087016490870174908701CA002F0DC
:1018D000B3FF1648007828B91148007810B91248AB
:1018E000007830B187B9012C0ED1012D0CD1012E19
:1018F0000AD100200D49087001200A490870002013
:10190000074908700849087000F09EFE04F0DEFCEC
:10191000BDE8F081001802400004024000200240AF
:101920001B0000201A0000201C0000201D000020C9
:101930008A020020300000202F0000202E0000200E
:101940004244313131313131000000007047000034
:1019500010B50020164908700120164908700020B3
:10196000154908700120154908700846007830B9FB
:1019700000224FF40041124801F094FF04E00122DC
:10198000D1030F4801F08EFF0B48007830B90022D8
:101990004FF480410A4801F085FF07E0012002F082
:1019A000F1FA01229103064801F07CFF10BD00000E
:1019B000D4020020D5020020B0000020B100002099
:1019C000001C024038480078012836D1374800789A
:1019D00030B937480078012802D13649087062E0F2
:1019E00032480078012807D133480078012803D114
:1019F00002203049087056E02C480078012807D1B1
:101A00002B480078012803D103202A4908704AE0B6
:101A10002648007838B928480078012803D10420E6
:101A2000244908703FE02248007830BB2248007803
:101A300018BB05201F49087035E01C4800780128B4
:101A400006D11E480078012802D11A4908702AE000
:101A50001648007838B91A480078012803D10220C6
:101A6000144908701FE01148007838B9134800780D
:101A7000012803D103200F49087014E00B480078B7
:101A8000012807D10E480078012803D10420094914
:101A9000087008E00948007828B90948007810B9AA
:101AA00005200449087070471B000020D00000206A
:101AB000D1000020D6000020D2000020D30000205A
:101AC000D40000207FB500F075F900F0C5FB274871
:101AD0000068C0B94FF4784001F0DEFF01F0C2FFAA
:101AE000C088C0EBC00084B221A1204601F03EFFB7
:101AF00001F0B8FFC088C004040C22A1204601F008
:101B000035FF00BFFEE7012000F07AFD00F060FD28
:101B1000042002F0C5FB684602F030F96422019807
:101B2000B0FBF2F1B1F1807F00D31DE021F07F40E6
:101B3000401E4FF0E022506150170F22002807DAB4
:101B400013071D0E144B00F00F04241F1D5503E056
:101B500013071C0E114B1C5400BF00204FF0E02255
:101B600090610720106100BF7FBD000028010020A8
:101B700020202045746865726E657420496E697412
:101B8000202020002020202020206661696C6564D0
:101B9000202020202020000018ED00E000E400E0DC
:101BA0002F480068006800F0004098B92C48006891
:101BB000006800F4807068B1294800682949096804
:101BC0004860284800688068401C26490968886089
:101BD0000120704722480068006800F00040F0B91A
:101BE0001F480068006800F40070C0B11C4800681D
:101BF000006800F4807090B91948006819490968B4
:101C000008600020174909684860012015490968E3
:101C1000886013480068C068114908601DE01048DA
:101C20000068006800F00040B8B90D48006800681E
:101C300000F4007088B90A480068006800F48070F9
:101C400058B9084800688068401C064909688860DF
:101C500003480068C068024908600020B9E7000036
:101C6000BC030020C003002030B10749896941F05E
:101C70000201054A916105E00349896921F00201E9
:101C8000014A9161704700000090024070B50C4617
:101C900013460021124D286000BF18E000EB4112EE
:101CA0004FF00045156044F2F4555560C1EBC11585
:101CB00005EB450504EB850595605D1E8D4204D955
:101CC00000EB41152035D56000E0D060491C9942F9
:101CD000E4D3044DE860044D044E356070BD00004F
:101CE000BC030020009002407CF80020C0030020CC
:101CF00030B10749896941F40051054A916105E015
:101D00000349896921F40051014A9161704700003B
:101D10000090024030B50C46134600210F4D28605C
:101D200000BF15E000EB41124FF480151560C1EBC8
:101D3000C11505EB450504EB850595605D1E8D42DB
:101D400004D900EB41152035D56000E0D060491C76
:101D50009942E7D3024D286130BD0000B80300204E
:101D60000090024002680A430260704710B50121EA
:101D7000480601F0E3FF00214FF0007001F0DEFFA4
:101D800010BD01B581B0002000900198009002E0E4
:101D90000098401E009000980028F9D10CBD00006A
:101DA0000348806940F48010014988617047000051
:101DB000009002401CB5012140F2E71001F0AEFF97
:101DC0000121880301F0CAFF4FF4807000900320C6
:101DD0008DF8050002208DF8040000208DF8060023
:101DE0008DF807006946464801F08AFC00214FF44F
:101DF000800002F037F8002002F0D2F88620009030
:101E000069463F4801F07CFC0B2201213C4801F06F
:101E10001DFD0B2202213A4801F018FD0B2207217B
:101E2000374801F013FD4FF4907000906946354833
:101E300001F066FC0B220521324801F007FD0B2260
:101E40000821304801F002FD3E20009069462E48EE
:101E500001F056FC0B2201212B4801F0F7FC0B226C
:101E60000221294801F0F2FC0B220321264801F04F
:101E7000EDFC0B220421244801F0E8FC0B22052193
:101E8000214801F0E3FC4FF4D040009069461F4820
:101E900001F036FC0B2211461C4801F0D7FC0B2246
:101EA0000D211A4801F0D2FC0B220E21174801F037
:101EB000CDFCCC2000906946154801F021FC0B2296
:101EC0000221134801F0C2FC0B220321104801F04B
:101ED000BDFC0B2206210E4801F0B8FC0B220721A5
:101EE0000B4801F0B3FC4FF480600090694609484C
:101EF00001F006FC0B220A21064801F0A7FC1CBDDC
:101F000000000240000402400008024000180240A5
:101F1000001C02400020024000200449096801F032
:101F2000010109B1012000E000207047009002404B
:101F30001EB500210022009201920292114A1268FD
:101F40001268C2F30D42111F00910F4A1268926885
:101F5000012A05D90C4A126812689268019203E0BE
:101F6000084A126892680192064A12680292054A6B
:101F70001268D268034B1A609DE81C0080E81C00C0
:101F80001EBD0000BC030020C00300202DE9F0416D
:101F900086B004460F464FF000080025002005904B
:101FA000954E00909548056925F01C0501A801F0A3
:101FB000E5FE029E9248864205D39248864202D2AE
:101FC00045F008051AE08F48864205D38A488642C4
:101FD00002D245F00C0511E08748864203D38A48B7
:101FE000864200D20AE08848864205D38748864266
:101FF00002D245F0040501E045F010057F48056177
:102000004FF400420021384600F0ACFA18B9002025
:1020100006B0BDE8F0817E48FFF7B3FE20680028D7
:102020004ED000BF0098401C00900121384600F0BF
:10203000EFF900F0040018B9764900988842F1D30E
:1020400074490098884201D10020E1E70020009007
:102050004FF480520021384600F084FA08B900207D
:10206000D6E700BF0098401C00900121384600F0E0
:10207000CFF900F0200018B9664900988842F1D3E2
:1020800064490098884201D10020C1E700200090F7
:102090001021384600F0BCF9804608F0040018B161
:1020A0004FF40060206201E00020206208F002008E
:1020B00010B10020606116E04FF48040606112E0D2
:1020C000206AC0F3CF006169C1F34F0140EA010209
:1020D0000021384600F046FA08B9002098E76FF072
:1020E0007F40FFF74EFE454805684B480540D4E960
:1020F00001010843E1680843216908436169084315
:10210000A1690843E1690843216A0843616A0843F9
:10211000A16A0843E16A0843216B0843616B0843E5
:10212000054336480560D4E90E010843216C084395
:10213000616C0843A16C0843E16C0843216D0843BE
:10214000616D08432D494860A06D8860E06DC860EE
:10215000084685694FF641700540B4F86010606E1E
:1021600040EA0140A16E0843E16E0843216F084335
:10217000616F0843054321488561D4E91E01084386
:102180001E49C8612548856925480540D4E92001D4
:102190000843D4F888100843D4F88C100843D4F8C6
:1021A00090100843D4F894100843D4F898100843CA
:1021B000D4F89C100843D4F8A010084305431748EE
:1021C0008561D4E929010843D4F8AC100843D4F858
:1021D000B0100843D4F8B41040EA8100D4F8B81025
:1021E000084340F400000D4908600846006840F0CC
:1021F0008000086001200BE7008793030080024005
:10220000002D3101C00E160200E1F50580D1F00865
:10221000FFFF0F00FFFF04000F8120FF009002402E
:10222000233FDEF810B50B794C7943EA0422094BC1
:1022300003441A64CB781B068C7843EA04434C7839
:1022400043EA04230C7843EA0402024B03445A6431
:1022500010BD00000080024000B5AFB001214FF07A
:10226000606001F05BFDFFF781FD00F007F900BF42
:10227000FFF752FE0128FBD0684600F019F9012053
:102280000090002007904FF400700A9000200B90FF
:102290000E9011901390149015904FF48060099057
:1022A000002020904FF0007021900011239000201A
:1022B0002590269004202890C005299040122A904D
:1022C00080012B9040122C9040002E9001216846F6
:1022D000FFF75CFE014908602FB000BD2801002017
:1022E00030B10749096841F00401054A116005E071
:1022F0000349096821F00401014A11607047000098
:102300000080024030B10749096841F00801054AE0
:10231000116005E00349096821F00801014A1160D4
:10232000704700000080024070B50246002300257F
:10233000002435480068006800F0004008B1002023
:1023400070BD3148016840F2F450824208DD92FBD2
:10235000F0F392FBF0F600FB162010B15B1C00E0DE
:102360000123012B1AD128480068006840F0405032
:10237000254E36683060C2F30C00234E366870601C
:1023800021480068006840F000401F4E3668306009
:102390001D480068C0681C4E306028E0002422E020
:1023A0003CB919480068006840F08050164E366805
:1023B000306040F2F4504860581EA0420DD10868C9
:1023C00040F000500860581EC0EBC01000EB400009
:1023D000A2EB8005C5F30C004860086840F000409F
:1023E0000860C968641C9C42DAD30748016007484A
:1023F000406900F0040020B10420044E7061002008
:10240000706001209CE70000B803002000900240AB
:1024100018B502460B4600210020009015480169BE
:1024200001F01C014FF4784000EAC22001434FF450
:10243000F86000EA8310014321F0020141F001013C
:102440000C48016100BF0098401C009009480169D8
:1024500001F0010018B1084C0098A042F3D3064CDB
:102460000098A04201D1002018BD0248406980B206
:10247000FAE7000000800240FFFF04000348006804
:1024800040F00100014908607047000000900240E0
:1024900000B50120FFF736FFFFF782FC0120FFF7B0
:1024A0001FFF0120FFF724FC0120FFF7DDFB00BD2B
:1024B00001210160002141608160C16001614FF430
:1024C0008041416100218161C1614FF4006101627D
:1024D000002141628162C162016341638163C16322
:1024E000402101642021416400218164C1640165AF
:1024F00041658165C1650166802141660021816673
:10250000C166016741678167C1674FF08061C0F8AC
:1025100080104910C0F884100021C0F888104FF4D2
:102520000011C0F88C100021C0F89010C0F8941071
:10253000C0F89810C0F89C10C0F8A0104FF00071BF
:10254000C0F8A4104912C0F8A8108901C0F8AC1056
:102550004912C0F8B0100021C0F8B410C0F8B8108B
:102560007047000038B503460C460021002000905B
:102570001448016901F01C014FF4784000EAC320BF
:1025800001434FF4F86000EA8410014341F0020176
:1025900041F001010B484261016100BF0098401CFD
:1025A00000900848016901F0010018B1064D00983B
:1025B000A842F3D3044D0098A84201D1002038BDB1
:1025C0000120FCE700800240FFFF0400704700008C
:1025D0001CB50121022001F0A1FB0121880301F0BB
:1025E000BDFB00208DF804008DF807004FF48040FB
:1025F00000906946014801F083F81CBD00040240C8
:1026000070B50546002411212846FFF701FF044656
:1026100044F00304224611212846FFF7A3FF08B91E
:10262000002070BD12212846FFF7F2FE044644F058
:102630002004224612212846FFF794FF08B9002003
:10264000EFE70120EDE7000000B5B7B000203290C1
:102650002690FE48007801281ED107F075FFFC483F
:10266000008848B9FB480068032805D8F948006885
:10267000401CF84908600CE0F548008848B9F54866
:102680000068032805D9002001F060FF0021F1480F
:1026900001600020ED490870EF48007801287DD1E5
:1026A00000203590012034900020329033903090FB
:1026B0002F909FEDEA0B8DED2C0BEA4908803490AA
:1026C0009AE0E9493498085C202868D1DDE93401B2
:1026D000401A401E36903498401C3590369880B988
:1026E0003498401EE049085C249001F08DFE81B2D0
:1026F000DE4A339822F810103398401C33900020A3
:102700003690369801281AD13498401ED649085C74
:10271000249001F079FE02463498801ED249085C6C
:10272000249001F071FE42EA001081B2CF4A339842
:1027300022F810103398401C3390002036903698C1
:10274000022823D13498401EC749085C249001F028
:102750005BFE02463498801EC349085C249001F059
:1027600053FE42EA00123498C01EBF49085C249010
:1027700001F04AFE42EA002081B2BC4A339822F8B6
:1027800010103398401C3390002036903698032860
:102790002FD13498401EB449085C01E0FDE328E0E5
:1027A000249001F031FE02463498801EAE49085C48
:1027B000249001F029FE42EA00123498C01EAA4972
:1027C000085C249001F020FE42EA00223498001FA9
:1027D000A549085C249001F017FE42EA003081B25E
:1027E000A24A339822F810103398401C33900020EE
:1027F00036903498401C34909D4800680D383499C8
:1028000088423FF75EAF0020309031902590994983
:10281000087027900AE09549279831F81010964AD9
:1028200022F810102798401C80B227902798C928BA
:10283000F1DD002027900FE08F49279831F8100034
:102840004004010C2798C0F1C900884A22F81010F2
:102850002798401C80B227902798C928ECDD0020DB
:1028600027908CE02798FDF77CFE9FED840B53ECBE
:10287000102BCDE91C019DED1C0B51EC100BFDF74D
:102880007EFD9FED800B53EC102BCDE91E019DEDDD
:102890001E0B51EC100BFDF7CBFC9FED7C0B53ECAA
:1028A000102BCDE920019DED200B51EC100BFDF715
:1028B000D8FD9FED780B53EC102BCDE922019DED57
:1028C000220B51EC100BFDF75AFDCDE92A019DEDCD
:1028D0002A0B02F081FE8DED200B6449279831F818
:1028E00010001D90FDF73DFECDE91E019DED200B72
:1028F00053EC102B9DED1E0B51EC100BFDF73FFD23
:10290000CDE922019DED220B51EC100BFDF736FEB7
:1029100001B2624A279822F810101146279831F91F
:102920001000B0F5E16F03DA279831F8100010BB02
:102930004FF4E161594A279822F810109DED2A0BB7
:1029400002F04AFE8DED200B9DED200B53EC102B79
:102950009FED530B51EC100BFDF783FDCDE92201E8
:102960009DED220B51EC100BFDF727FE82B23F4983
:10297000279821F810202798401C80B2279027988C
:10298000C9287FF76FAF02202E90E5E32698012833
:1029900005D1309818B9319808B9002026902698AA
:1029A000012809D1319838B9309823302E998142C5
:1029B00002DB0020269030902698002878D12E98AF
:1029C000401E2A4931F81010284A2E9832F810007B
:1029D000081A64286CDD11462E9831F81010401C3E
:1029E00032F81000081A1F90FDF7AAFDCDE920016A
:1029F0009DED200B01F0C8FF8DED220B9FED2A0B02
:102A000053EC102B9DED220B51EC100BFDF7EEFD5E
:102A10004ED216492E98401C31F81010134A2E98A9
:102A2000801C32F81000081A1F90FDF789FDCDE9CF
:102A300020019DED200B01F0A7FF8DED220B9FEDF6
:102A40001A0B53EC102B9DED220B32E0D00200202C
:102A5000680100206C0100207301002000000000CC
:102A6000000000007401002080310020E0060020FA
:102A7000C40200209601002072080020000000001F
:102A80000000E03F000000000000444000000000A3
:102A9000008066404AD8124DFB210940EE380020E4
:102AA0000000000000209C40000000000000594091
:102AB00081E051EC100BFDF799FD7CD2FE492E9878
:102AC00031F91000B0F5487F75DD2E9831F910000E
:102AD000B0F5E16F6FDA1FED1F0B8DED280B2E980F
:102AE000329076E03298401E1B90FDF729FD1FEDD5
:102AF0001D0B53EC102BCDE91C019DED1C0B51EC73
:102B0000100BFDF73CFC1FED210B53EC102BCDE916
:102B10001E019DED1E0B51EC100BFDF789FB1FED07
:102B2000250B53EC102BCDE920019DED200B51EC32
:102B3000100BFDF796FC1FED290B53EC102BCDE984
:102B400022019DED220B51EC100BFDF718FCCDE995
:102B50002A019DED2A0B02F03FFD8DED200BD74998
:102B6000329831F810001D90FDF7FBFCCDE91E01F5
:102B70009DED200B53EC102B9DED1E0B51EC100B1B
:102B8000FDF7FDFBCDE922019DED220B51EC100B71
:102B9000FDF7F4FC01B2C84A329822F81010114631
:102BA000329831F910002190FDF7CAFCCDE92201DD
:102BB0009DED280B00E03DE053EC102B9DED220B2A
:102BC00051EC100BFDF734FBCDE928013298401C85
:102BD00032902E98C01C3299814283DD9FEDB80B54
:102BE00053EC102B9DED280B51EC100BFDF739FC2D
:102BF000CDE928019DED280B53EC102B9FEDB20B76
:102C000051EC100BFDF7F2FC12D21FED5B0B53ECF5
:102C1000102B9DED280B51EC100BFDF7E7FC07D2B4
:102C20002E983090AA49349808800120269001E01F
:102C300000202690269801287DD1A0492E98401C7E
:102C400031F810109D4A2E9832F81000081A6428A6
:102C500071DD11462E9831F81010401E32F8100028
:102C6000081A1F90FDF76CFCCDE920019DED200BAB
:102C700001F08AFE8DED220B1FED750B53EC102B2E
:102C80009DED220B51EC100BFDF7B0FC53D22E98AA
:102C9000401E8A4931F810102E98801E874A32F85B
:102CA0001000081A1F90FDF74BFCCDE920019DEDA7
:102CB000200B01F069FE8DED220B1FED850B53EC0F
:102CC000102B9DED220B51EC100BFDF78FFCDDD28C
:102CD00079492E9831F91000B0F5487FB8DD2E986B
:102CE00031F91000B0F5E16F25DA1FEDA40B8DED81
:102CF000280B2E98C01E32909CE03298401E1B90EC
:102D0000FDF71EFC1FEDA30B53EC102BCDE91C01AE
:102D10009DED1C0B51EC100BFDF731FB1FEDA70BCC
:102D200053EC102BCDE91E019DED1E0B51EC100B49
:102D3000FDF77EFA00E0B1E31FEDAC0B53EC102B76
:102D4000CDE920019DED200B51EC100BFDF789FB27
:102D50001FEDB00B53EC102BCDE922019DED220BA2
:102D600051EC100BFDF70BFBCDE92A019DED2A0B71
:102D700002F032FC8DED200B5049329831F81000F2
:102D80001D90FDF7EEFBCDE91E019DED200B53ECF0
:102D9000102B9DED1E0B51EC100BFDF7F0FACDE959
:102DA00022019DED220B51EC100BFDF7E7FB01B268
:102DB000414A329822F810109DED2A0B01F078FD5F
:102DC0008DED200B3D49329831F810001D90FDF734
:102DD000C8FBCDE91E019DED200B53EC102B9DEDA2
:102DE0001E0B51EC100BFDF7CAFACDE922019DED47
:102DF000220B51EC100BFDF7C1FB01B2354A3298A2
:102E000022F810102C49329831F910002190FDF76A
:102E100097FBCDE922019DED280B53EC102B9DED86
:102E2000220B51EC100BFDF703FACDE92801329883
:102E3000401C32902E99329888427FF75EAF9FED0A
:102E4000200B53EC102B9DED280B51EC100BFDF7D4
:102E500008FBCDE928019DED280B53EC102B9FEDCD
:102E60001A0B51EC100BFDF7C1FB5DD21FEDF40BFB
:102E700053EC102B9DED280B51EC100BFDF7B6FB1E
:102E800052D22E9831900020269013480078401C92
:102E9000114908701149104A1278309821F812002F
:102EA000319881B20E480C4A127820F812100A4864
:102EB0000078012838DD15E0EE380020E00600201B
:102EC00000000000000010400000000000008940E9
:102ED000C00200205C37002096010020603E0020E8
:102EE000743E0020FD49FE48007831F81010FC487F
:102EF0000078401EFB4A32F81000081A052813DA41
:102F0000F649F748007831F8100068B1F4480078C5
:102F1000401E114631F8100030B1F1480078401ED3
:102F2000EE4931F8100030903098B8B33198A8B31A
:102F3000DDE93010401A1190FDF702FB9FEDEA0B1E
:102F400053EC102BCDE912019DED120B51EC100B3F
:102F5000FDF715FA9FEDE60B53EC102BCDE91401AC
:102F60009DED140B51EC100BFDF77BFA9FEDE20B7E
:102F700053EC102BCDE916019DED160B51EC100B07
:102F8000FDF7FDF9CDE918019DED180B01F090FC5E
:102F90008DED1C0BDA49309801E04EE35BE031F82F
:102FA000100040000A46319932F811104843199038
:102FB000FDF7C6FACDE91A019DED1C0B53EC102B61
:102FC0009DED1A0B51EC100BFDF7D9F9CDE920015D
:102FD000CB49319831F810001790FDF7C2FA9FEDF8
:102FE000C91BCDE918019DED180B01F0D9FC8DED41
:102FF0001C0BC349309831F810001790FDF7B1FA57
:103000009FEDC01BCDE918019DED180B01F0C8FC28
:103010008DED1A0B9DED1C0B53EC102B9DED1A0B37
:1030200051EC100BFDF704F9CDE91E019DED200BCD
:1030300053EC102B9DED1E0B51EC100BFDF799F985
:103040009FEDA91BCDE922019DED220B01F0A8FC0B
:10305000AE4880ED000B309800287CD031980028D5
:10306000FBD0DDE93010401A0A2874DBDDE93010AE
:10307000401A23286FDCA54890ED000B53EC102B71
:103080009FEDA30B51EC100BFDF7B0FA63D29FED4F
:10309000A20B53EC102B9D4890ED000B51EC100B44
:1030A000FDF7A4FAF2D29FED9E0B8DED2C0B0020C4
:1030B0002F903098401E31990844401E1D90FDF716
:1030C0003FFA9FED900B53EC102BCDE91E019DEDC7
:1030D0001E0B51EC100BFDF7C4F99FED830B53EC65
:1030E000102BCDE920019DED200B51EC100BFDF7CD
:1030F00046F99FED8D0B53EC102BCDE922019DED90
:10310000220B51EC100BFDF793F80A460146884B51
:10311000259803EB001006C01946259801EB001016
:1031200090ED000B8DED1E0B9FED820B53EC102BE1
:103130009DED1E0B51EC100BFDF793F99FED710BFC
:1031400053EC102BCDE920019DED200B51EC100B21
:10315000FDF715F901E09EE1A4E19FED670B53EC4B
:10316000102BCDE922019DED220B51EC100BFDF748
:1031700006F90A4601466E4B259803EB001006C07F
:103180003098329067E13298401E0190FDF7D8F9EF
:103190009FED550B53EC102BCDE902019DED020B79
:1031A00051EC100BFDF7EBF89FED5F0B53EC102B80
:1031B000CDE904019DED040B51EC100BFDF738F83F
:1031C0009FED5C0B53EC102BCDE906019DED060B3A
:1031D00051EC100BFDF745F99FED4A0B53EC102B0A
:1031E000CDE908019DED080B51EC100BFDF7C7F878
:1031F0009FED410B53EC102BCDE90A019DED0A0B1D
:1032000051EC100BFDF7BBF8CDE90C0148492598AE
:1032100001EB001090ED000B8DED0A0B9DED0A0BFC
:1032200053EC102B9DED0C0B51EC100BFDF7A1F89E
:10323000CDE90E019DED0E0B01F0A6FB8DED100BFF
:103240009DED100B02F0C8F98DED140B2C4932984E
:1032500031F810001190FDF784F9CDE912019DEDD0
:10326000140B53EC102B9DED120B51EC100BFDF7D2
:1032700086F8CDE916019DED160B01F085FB8DED6D
:10328000180B9FED201B9DED180B01F089FB8DEDB8
:103290001C0B9FED1C1B9FED1E0B01F081FB8DEDA8
:1032A0001A0B9DED1C0B53EC102B9DED1A0B51ECE2
:1032B000100BFDF75EF8CDE91E019DED1E0B02F02F
:1032C000F7F98DED220B0E49329831F81000199064
:1032D000FDF747F9CDE91C0132982FE0603E002050
:1032E00096010020743E0020000000000000E03F36
:1032F00000000000008066404AD8124DFB210940C2
:10330000E00600200000000000000040B80200209D
:10331000000000000000594000000000000079405B
:103320000000000000000000000000000000444019
:10333000B03E00200000000000807640401E099052
:10334000FDF7FEF81FED180B53EC102BCDE90A0129
:103350009DED0A0B51EC100BFDF711F81FED0E0B54
:1033600053EC102BCDE90C019DED0C0B51EC100B27
:10337000FCF75EFF1FED110B53EC102BCDE90E0196
:103380009DED0E0B51EC100BFDF76BF81FED230BB1
:1033900053EC102BCDE910019DED100B51EC100BEF
:1033A000FCF7EDFF1FED2C0B53EC102BCDE91201B8
:1033B0009DED120B51EC100BFCF7E1FFCDE9140170
:1033C0009F49259801EB001090ED000B8DED120B3D
:1033D0009DED120B53EC102B9DED140B51EC100BCB
:1033E000FCF7C7FFCDE916019DED160B01F0CCFAF5
:1033F0008DED180B9DED180B01F05AFA8DED1A0B9F
:103400009DED1C0B53EC102B9DED1A0B51EC100B8A
:10341000FCF7B5FFCDE91E019DED2C0B53EC102BF5
:103420009DED1E0B51EC100BFCF702FFCDE92001C6
:103430009DED220B53EC102B9DED200B51EC100B4E
:10344000FCF7F6FECDE92C012F98401C80B22F909E
:103450003298401C3290DDE9311088427FF793AEFC
:103460002F98FDF77EF8CDE922019DED220B53EC5C
:10347000102B9DED2C0B51EC100BFCF7F2FF0A46C4
:1034800001466F4B259803EB0010C0E90212259806
:10349000401CC0B225900020319030902E98401CE6
:1034A00080B22E902E98C9287FF770AA65A0259922
:1034B00001F0C2F92598032802D02598042821D1CB
:1034C00062480078F0B96248007801281AD1614852
:1034D0000078012816D16049087002205F49087001
:1034E0005F49259808700120584908705D48008898
:1034F000401C81B25B4801800020554908700120C2
:103500005949088056480078032808D1259804288E
:1035100005D14F48007810B904205149087025980A
:10352000032813D14E48007802280FD14F48007865
:1035300001280BD14648007840B901214648017066
:103540000220464908700320454908704348007826
:1035500002281ED14048007801281AD12598032856
:1035600017D142480078012813D139480078012842
:103570000FD10020384908700120384908703349BC
:10358000087038480088401E3649088000203049BD
:103590000870259802280CD02598032802DB3048B3
:1035A000007830B12E480078042811D125980328DE
:1035B0000ED12748007858B900202749087001200B
:1035C0002649087000212148017002212448017019
:1035D0001E480078012816D12598032802D0259886
:1035E000042810D11A48007868B9214800780128C9
:1035F00009D11848007830B91C480078012802D158
:1036000000201249087011480078012815D125982A
:10361000032802D0259804280FD10D48007860B9FE
:103620001348007848B90B480078012805D10F48A5
:10363000007810B900210548017037B000BD0000C6
:10364000B03E00206A633D25750A0000800200201C
:10365000880200201B000020860200208702002034
:103660002B0000208A020020840200201C00002081
:103670001E0000201CB50446012140F2E71000F0B6
:103680004DFB0121880300F069FBF0200090002031
:103690008DF804006946154800F032F84FF40040F8
:1036A000009000208DF804006946114800F028F8C9
:1036B000E020009000208DF8040069460D4800F0DD
:1036C0001FF84FF44070009000208DF80400694608
:1036D000094800F015F84FF40070009003208DF8B1
:1036E00004006946054800F00BF81CBD00200240AC
:1036F0000018024000040240001C02400014024076
:10370000F0B50A4600210023002400BF3DE001255A
:1037100005FA01F3156805EA03049C4234D10568F3
:103720004F000326BE40B543056015794E00B540F5
:103730000668354305601579012D02D01579022DF3
:1037400016D185684F000326BE40B5438560557984
:103750004E00B540866835438560456801268E4039
:10376000B5434560456896798E40B6B235434560AD
:10377000C5684F000326BE40B543C560D5794E00ED
:10378000B540C6683543C560491C1029BFD3F0BD9C
:103790001CB5012140F2E71000F0C0FA01218803B6
:1037A00000F0DCFA0720009001208DF804000020D2
:1037B0008DF8060001208DF8070002208DF8050025
:1037C00069461E48FFF79CFF4FF4404000900120DF
:1037D0008DF8040000208DF8060001208DF8070008
:1037E00002208DF8050069461548FFF789FF4FF460
:1037F0008050009001208DF8040000208DF8060014
:1038000001208DF8070002208DF8050069460D485B
:10381000FFF776FF4FF4E070009001208DF8040070
:1038200000208DF8060001208DF8070002208DF899
:10383000050069460448FFF763FF1CBD00200240F5
:10384000001C02400000024000180240F0B50023B6
:1038500000244D07ED0E02FA05F3CE1000F120050D
:1038600055F826504E07F70E0F26BE40B543CF1031
:1038700000F1200646F82750CE1000F1200555F83B
:10388000265045EA0304CE1000F1200545F82640F5
:10389000F0BD0246002013690B400BB1012000E08F
:1038A000002070470AB1018300E04183704700BFE8
:1038B000FEE700000020094908700120084908704F
:1038C000084908700849087000200849087008492C
:1038D000086008490860084908607047B700002080
:1038E000D1000020D20000201A000020B8000020E3
:1038F000C4000020BC000020C000002000200949B6
:1039000008700949087009490860486088600849DA
:103910000860486088600749086048608860064918
:103920000870704700000020010000200C3F0020BC
:10393000040A0020003F0020F202002070B5054676
:103940000E461446A4F12000C4B20748006801687E
:1039500005480068C088604301EB400231462846B4
:1039600000F02AF870BD0000E803002070B506469C
:103970000C4640F23F150AE0227829463046FFF710
:10398000DDFF0C4800688088281A85B2641C681C1A
:1039900080B2084909688988884201DB012000E07B
:1039A0000020217809B1012100E000210840002811
:1039B000E2D170BDE80300202DE9F04307468946B7
:1039C000164600240025A046B8464946404600F069
:1039D00057F800BF39E000F06BF8002527E01E48DB
:1039E000006880880C2190FBF1F0C10080208840A5
:1039F000284136F81410084020B91748006880881C
:103A00000C280ADD36F814000121A940084048B905
:103A10001148006880880C2804DD1048008800F0F8
:103A200043F803E00E48008800F03EF86D1C0A4899
:103A300000688088A842D2D808F101001FFA80F8F7
:103A40004946404600F01CF8641C03480068C088E2
:103A5000A042C0D8BDE8F083E8030020EE030020B8
:103A6000EC0300200148006870470000E8030020D4
:103A700001B5BDF800000149088008BDEE03002033
:103A800010B503460C461946202000F016F82146D2
:103A9000212000F012F810BD01B5BDF80000014969
:103AA000088008BDEC0300204FF0D84148807047E3
:103AB00022204FF0D841088070474FF0D842108044
:103AC0005180704710B58CB005F0E0FD05F02EFF79
:103AD000274804F012FE0B906FF0FF0004F00DFE7B
:103AE0000A902348663804F008FE099067208DF894
:103AF000200001208DF82100A8208DF82200C02090
:103B00008DF823009DF820009DF82110CDE90010CC
:103B10009DF822309DF8232016A103A800F09CFEFA
:103B2000FFF7A0FFC088C004040C16A12046FFF7D1
:103B30001DFFFFF797FFC08800EBC00084B203A908
:103B40002046FFF713FF15481549002209ABCDE9C0
:103B5000002102900AAA0BA9124805F02FFF114874
:103B600005F07CFF0F4805F0D3FF0CB010BD00003E
:103B70006701A8C0202025642E25642E25642E25EB
:103B80006400000020205374617469632049502050
:103B9000616464726573732020200000E183000873
:103BA0004D840008380A002001B50C4900980968C6
:103BB000401AFA2804D309490098086008F0FCFF6D
:103BC000074900980968401A41F28831884204D3B5
:103BD00003490098086004F0B3FB08BD1C010020F5
:103BE0002001002010B5024804F048FC10BD000080
:103BF000380A00202DE9F0410746884614461D4644
:103C0000284600F033F8C5F1040007FA00F60F204B
:103C1000284100EA0800064306F00F06E21704EB0D
:103C2000D2625211920002F1E022D2F80021214624
:103C3000E31704EBD3635B11A4EB431C012303FAEA
:103C40000CF31A432046E31704EBD3635B119B008C
:103C500003F1E023C3F800210348005D40EA0610A9
:103C600001490855BDE8F08100E400E00146072362
:103C700023EA01021202054B18684FF6FF031840B1
:103C8000034B18431043014B186070470CED00E0E4
:103C90000000FA0500BFFEE710B5044614B900F0B5
:103CA00007F801E0FDF754FE10BD704770470000B3
:103CB00010B5002014490870012014490870002034
:103CC000134908700120134908701148007830B971
:103CD00000224FF400411048FFF7E4FD04E0012208
:103CE000D1030D48FFF7DEFD0A48007830B9002205
:103CF0004FF480410848FFF7D5FD04E0012291030D
:103D00000548FFF7CFFD10BDD5020020D4020020EA
:103D1000B1000020B0000020001C024029B1064A7A
:103D200012680243044B1A6004E0034A126882439B
:103D3000014B1A60704700003038024029B1064A32
:103D400012680243044B1A6004E0034A126882437B
:103D5000014B1A60704700001038024029B1064A32
:103D600012680243044B1A6004E0034A126882435B
:103D7000014B1A607047000044380240F0B5002142
:103D800000220024022500260223324F3F6807F05C
:103D90000C0121B1042905D0082937D105E02E4FA7
:103DA000076036E02D4F076033E02A4F3F1F3F6822
:103DB000C7F38056274F3F1F3F6807F03F036EB1A0
:103DC000264FB7FBF3F7DFF88CC0ACF1040CDCF83E
:103DD00000C0CCF3881C07FB0CF40CE01E4FB7FBB3
:103DE000F3F7DFF870C0ACF1040CDCF800C0CCF3E2
:103DF000881C07FB0CF4174F3F1F3F68C7F30147B0
:103E00007F1C7D00B4FBF5F7076002E0124F0760EE
:103E100000BF00BF0F4F3F6807F0F0010909104FC6
:103E20007A5C0768D74047600A4F3F6807F4E05163
:103E3000890A0B4F7A5C4768D7408760054F3F6817
:103E400007F46041490B064F7A5C4768D740C7606A
:103E5000F0BD0000083802400024F40040787D01E5
:103E6000A703002002460020044B186820F0EC60F5
:103E700042EA01031843014B1860704708380240BA
:103E800000B505480078012804D1002002490870D7
:103E9000FDF798FD00BD0000B70000207CB504468A
:103EA0000D462C4951F824102B4A52F8242041EA9F
:103EB00002000121FFF732FF2CB9284951F82400F4
:103EC0000121FFF74BFF264B13F81420254B33F845
:103ED0001410254B53F82400FFF7B8FC234B13F8BC
:103EE0001420234B33F81410224B53F82400FFF70F
:103EF000ADFC00208DF8060001208DF8070002209F
:103F00008DF804001C4830F81400009002208DF851
:103F10000500154951F824006946FFF7F1FB02201E
:103F20008DF80400154830F814000090114951F83C
:103F300024006946FFF7E4FB114951F824002946A3
:103F400000F09AFA0E4951F82400012100F07AFAA3
:103F50007CBD000068FB00086CFB000864FB0008E7
:103F600078FB000874FB0008100400207AFB0008AE
:103F700076FB00081404002070FB000872FB0008A8
:103F80000C040020034931F81010034A52F8202095
:103F90001183704720FB0008F003002070470000E9
:103FA0000149086070470000DC00274210B52DED84
:103FB000048B0024FCF78AFC0446384800888442BD
:103FC00008D037480078012804D13648007808B96D
:103FD00032490C803448007804280ADC33483249DE
:103FE000097840F8214030480078401C2E4908707C
:103FF0001DE02D480078052819DB01202C490870A8
:104000000FE02A482A49097850F8211028480078FA
:10401000401E264A42F8201025480078401C2449BA
:104020000870234800780428EBDD20480461012053
:104030001F4908700FE01E480078401E1B4951F8C8
:1040400020001C49096808441A490860184800788B
:10405000401C1749087016480078134909788842AF
:10406000E9DD1448006810490978B0FBF1F400203C
:10407000104908602046FCF774FA41EC190B9FEDDB
:104080000E0B53EC102BFCF77AF941EC180BFCF7F4
:1040900075FA0B498860BDEC048B10BDFA02002054
:1040A0002600002027000020F3020020183F0020F7
:1040B000F8020020F40200201EC4CE143AAFE13F03
:1040C000003F002010B51F20FFF7D2FC4FF6FF7015
:1040D000FFF7E2FC16480078401C154908700846B6
:1040E0000078022800DA10BDFFF760FF11488068F1
:1040F00011498968884205D90E4880680E49896847
:10410000441A04E00C4880680A498968441A082C5B
:1041100009D30848806809498860064880680649CC
:104120008860FDF7CDF800200149087000BFDAE78C
:10413000F2020020003F00200C3F0020040A002073
:104140000CB50020019000903448006840F48030A5
:104150003249086000BF3148006800F40030009028
:104160000198401C0190009818B90198B0F5A06F13
:10417000F1D12A48006800F4003010B1012000900D
:1041800001E0002000900098012846D123484030EB
:10419000006840F0805021494031086020480068A4
:1041A00040F480401E4908601C48083000681B49E4
:1041B000083108600846006840F40040086008467E
:1041C000006840F4A05008601648091F0860081FE6
:1041D000006840F08070091F086000BF0F48006849
:1041E00000F000700028F9D040F205600E49086028
:1041F0000A480830006820F00300084908310860C8
:104200000846006840F00200086000BF034808301C
:10421000006800F00C000828F8D10CBD00380240FE
:104220000070004019544007003C024010B50020C7
:1042300016490870164908701448007840B21549AC
:1042400008701348007840B2134908700846007897
:1042500030B900224FF400411048FFF723FB04E07F
:104260000122D1030D48FFF71DFB0A48007830B941
:1042700000224FF480410948FFF714FB04E00122BB
:1042800091030648FFF70EFB10BD0000D40200208A
:10429000D5020020B0000020B1000020001C024028
:1042A000042808D14FF0E021096941F004014FF0E2
:1042B000E022116107E04FF0E021096921F00401DB
:1042C0004FF0E0221161704710B500F089F810BD81
:1042D00010B51548006840F4700013490860134891
:1042E000006840F001001149086000200F490831C2
:1042F00008600E4800680E4908400C4908600D48E7
:10430000091D0860081F006820F48020091F08604C
:10431000002006490C310860FFF712FF4FF00060E3
:1043200001498039086010BD88ED00E00038024086
:10433000FFFFF6FE1030002410B54FF08040008AD9
:1043400000F0010020B105480088401C03490880A6
:104350000121880700F040F810BD00008E01002008
:104360000748008800F0010010B1012005490870DD
:104370000348008820F001000149088070470000D0
:1043800010040040D002002070B505460C461048CD
:10439000006840F002000E4908600E480560001FEA
:1043A00004800C482038008840F001000949203979
:1043B000088008482C38008840F0010005492C3955
:1043C000088002231D2200210846FFF713FC70BD60
:1043D000403802402C040040CA430282704700006B
:1043E000074800680A3006490860084600686428E3
:1043F00004D30020086001200249087070470000C3
:10440000C8020020C20200200146412902DBA1F1BE
:10441000370001E0A1F1300070471FB54FF416508E
:1044200000900020ADF80400ADF80600ADF80800DB
:10443000ADF80C000C20ADF80A0069460020FFF72B
:104440002DFD1FBD21B1828942F40052828104E01A
:1044500082894DF6FF731A40828170470246002020
:10446000B1F5007F00D100BF13880B400BB10120D4
:1044700000E00020704700002DE9FF4705460E468A
:104480000024A14600BFA046B08900B100BF2C8A1D
:1044900024F44054F08804432C82AC8941F20C602F
:1044A0008443B08831890843718908430443AC814F
:1044B000AC8A24F44074B0890443AC826846FFF7A8
:1044C0005DFC2048854202D01F48854202D1DDF8BC
:1044D0000C9001E0DDF80890A88900F4004040B19C
:1044E00009EBC90000EB091031684900B0FBF1F796
:1044F00007E009EBC90000EB091031688900B0FB47
:10450000F1F76420B7FBF0F004012009642101FBFE
:104510001078A88900F4004040B1322000EBC800B8
:10452000B0FBF1F000F00700044308E0322000EB9C
:1045300008106421B0FBF1F000F00F0004432C815F
:10454000BDE8FF87001001400014014070B504462B
:10455000FF2C0ADC2146184800F030F800BF40214B
:104560001548FFF77BFF0028F9D0FF2C22DD2046FD
:10457000E11704EB1161C1F30F25E11704EB1161A1
:104580000912A4EB01218EB229460B4800F016F85F
:1045900000BF40210848FFF761FF0028F9D03146ED
:1045A000054800F00BF800BF40210348FFF756FF15
:1045B0000028F9D070BD000000100140C1F30802CE
:1045C0008280704700BFFEE71D48007801280BD1AC
:1045D0001C48007840B90120194908700020194989
:1045E0000870194908702AE01548007868B915481C
:1045F0000078012809D100201149087001201149D3
:10460000087000201049087019E000200C4908705B
:104610000C49087001200C4908700C490870F02002
:104620000B49086000200B4908700B4908700B49C2
:1046300008700B4908600B4908600B490860704717
:104640001B0000201C0000201A0000201900002080
:10465000D8000020DC000020B7000020B8000020B7
:10466000BC000020C0000020C400002010B5654838
:104670000078002877D164480078012873D10020A1
:10468000614908706148007801280AD16048806853
:10469000E82806D35E488068F82802D800205B49E5
:1046A00008705B4881685B480068083881420FD811
:1046B0005748806864280BD30020FFF7EDFA0120EB
:1046C00055490870002055490870FDF7ABF84AE0DD
:1046D0004F4881684F4800680830814211D34C48E8
:1046E0008068B0F5BE7F0CD80120FFF7D5FA002016
:1046F000494908700120494908700020FDF792F8E7
:1047000031E0FFF793FD4348006845490860002009
:1047100041490870414908704248007818BB424836
:10472000007800BB3B480068F02809D10120FDF764
:1047300079F83E48007820F010003C49087012E0FB
:104740003B480078401C3A490870084600783228F7
:1047500009DD00200870FDF765F83448007840F066
:104760001000324908702A488068642816D23148FF
:104770000068401C2F49086008460068322840D96C
:10478000002008602948007840F040002749087060
:104790000846007820F02000087032E01C4880684D
:1047A000B0F5BE7F16D923480068401C2149086037
:1047B00008460068322824D9002008601B48007889
:1047C00040F02000194908700846007820F04000A9
:1047D000087016E00E4880686E2812D90C48806870
:1047E000B0F5B97F0DD20020124908600F4800785B
:1047F00020F020000D4908700846007820F04000A5
:10480000087010BDD7000020010000201900002012
:10481000040A0020D8000020D6020020D702002081
:10482000DC0200201B0000201C000020AC00002047
:10483000E8020020E40200200FB4054B10B503A9E4
:10484000044A029801F082FB10BC5DF814FB0000E2
:10485000AD8600081C0400200FB4084B10B504A955
:1048600002AA039801F072FB044602A9002001F09D
:1048700017FC204610BC5DF814FB0000A160000886
:1048800003B401984100009850EAC12018BF0420E9
:104890004A0D18BF40F0010040F2FF72B2EB515FC9
:1048A00008BF40F00200012808BF052002B0704791
:1048B00010B533492DED020B2DED028B84B09FED29
:1048C0002E8B079820F00040B0EE481AF0EE681AE0
:1048D0008842D8BF9DED060B36DD2A4988420CD1AF
:1048E000069858B94FF0010001F02AFB53EC182B41
:1048F00051EC180BFBF7B5FD34E008DB9DED060B22
:1049000053EC102B51EC100BFBF792FC2AE068469D
:104910009DED060B00F00CFF10F0030004BF9DEDB1
:10492000021B9DED000B0FD0012810D09DED021B46
:104930009DED000B022818D0012001F049FA04B0C7
:10494000BDEC028B02B010BD01F00EF9F7E79DED52
:10495000021B9DED000B012001F03AFA51EC100B07
:1049600081F0004141EC100BE9E701F0FDF851EC5A
:10497000100B81F00041F5E700000000000000008E
:10498000FB21E93F0000F07F2DED020B019820F0A4
:10499000004001909DED000B02B070470000000048
:1049A0002DE9F04D2DED040B2DED0E8B94B0DDE9CE
:1049B0002350259CDDF888A025F0004624F000480F
:1049C000BAF1000F14BF0121002101EB4502FE499D
:1049D00053184A1093422AD3002814BF01230023FE
:1049E00003EB44030B44F9498B4220D358EA0001FE
:1049F0009FEDF79B6FD0DFF8E0B35D4503D1BAF1CF
:104A0000000F05D181E0BAF1000F08BF002100D0EE
:104A1000012101EB450111F5001F08D8002814BF42
:104A20000121002101EB440111F5001F0AD99DED80
:104A3000240B53EC102B9DED220B51EC100BFBF7CC
:104A4000F7FB40E00027002DBCBFE449884521DA90
:104A5000E3498845A8BF02271CDAC3451ADCE149AF
:104A600001EB2851142908DDC1F1340220FA02F1CA
:104A700001FA02F282420DD108E058B9C1F11402E4
:104A800028FA02F101FA02F2424503D101F00101D4
:104A9000C1F1020756EA0A019FEDD3AB1CD1002CED
:104AA0001ADA002D18BF022F01D0012F07D00220E3
:104AB00001F046FA53EC1A2B51EC190B00E10220DD
:104AC00001F03EFA7AE041EC100B14B0BDEC0E8B15
:104AD00004B0BDE8F08D18E09FEDC5BB9FEDC68B1F
:104AE000002874D1BD48804522D105F1804010F5E1
:104AF000801008BFBAF1000F07D0B3450ADC002CC4
:104B0000A8BF9DED240BE0DA0DE0B0EE490AF0EE0F
:104B1000690ADAE7002C06DA9DED240B51EC100B44
:104B200081F00041CFE7B648784490ED000BCCE728
:104B3000D84550D1002C4BDA2EB186423DD1BAF186
:104B4000000F45D129E0BAF1000F16D0022001F084
:104B5000F7F953EC182B51EC180BFBF710FCCDE9CF
:104B600002019DED220B10EE900A8DED000B61F31A
:104B70001E0003909DED020BA7E78DED02BB9DED9E
:104B8000220B1BEE901A10EE900A8DED000B61F3D4
:104B90001E0003909DED020B97E78DED02AB9DED9E
:104BA000220B1AEE901A10EE900A8DED000B61F3B5
:104BB0001E0003909DED020B87E709DA9DED220BA5
:104BC00051EC190B53EC102BFBF74BFC7BE71DE072
:104BD0009DED220B79E7864218DAB4F1804F0DD0B3
:104BE000A4F10050B0F1FF5010D1002D0EDB9DED6F
:104BF000220B51EC100B05F0B9FA64E79DED220B86
:104C000053EC102B51EC100B00F0BABC9DED220BB5
:104C100051EC100B03F048FCBAF1000FCDE9120182
:104C200034D19FED790BDEB1A6F1E040B0F17F60A9
:104C30002CD1002D01DD002C0DDA002D01DD002C22
:104C40001FDB002D16DA002C14DB012F08BF9FEDAF
:104C5000700B3FF43AAFB0EE4B0AF0EE6B0A34E75C
:104C6000022F18BF002D0CD0012F0AD1002DFFF606
:104C70002CAF06E0002DB8BF002C07DA012F3FF45F
:104C800024AFB0EE4A0AF0EE6A0A1EE7012000EBFC
:104C9000E570049038430CD05F48002580457BDDEB
:104CA0005E495F48884513DDB0420CDB002C18DB01
:104CB0002CE0012001F044F953EC1A2B51EC1A0BB3
:104CC000FBF7CFFBFFE6B34502DC002C09DC1DE05F
:104CD000864202DA002C19DA03E05E4529DD002C59
:104CE00014DD022001F02CF953EC182B51EC180BB9
:104CF000FBF745FBCDE902011BEE900A8DED00BBF1
:104D000061F31E0003909DED020BDEE6022001F030
:104D100017F901F0F5F810EE901A19EE900A8DEDE2
:104D2000020B8DED009B61F31E0003909DED020BC5
:104D3000CBE69DED220B53EC192B51EC100BFBF73E
:104D400018FB9FED390BCDE90C0153EC102B9DEDB9
:104D50000C0B51EC100BFBF712FB9FED351B53ECCA
:104D6000112BFBF709FB9DED0C1B53EC112BFBF7F3
:104D700006FB9FED311B53EC112BFBF7FDFA9DED6C
:104D80000C0B41EC1A0B53EC102B51EC100BFBF7F6
:104D9000F6FA53EC1A2B00E087E0FBF7F0FA9FEDF0
:104DA000280B41EC1B0B53EC102B9DED0C0B51EC25
:104DB000100BFBF7E4FA9FED240B41EC1A0B53ECBC
:104DC000102B51EC1B0B43E0FFFF1F00FFFF0F00F8
:104DD000000000000000F03F0000F03F0000F07F06
:104DE0000000404301FCFFFF000000000000000045
:104DF000000000000000F07F0000000000000070D4
:104E00000CB1000000000000000000000000008065
:104E1000000000000000F0FF0000E0410000F0434F
:104E2000FFFFEF3F00000000000000000000D03F47
:104E3000555555555555D53F000000000000E03F41
:104E4000000000604715F73FFE822B654715F73FCE
:104E5000FBF795FA41EC1B0B9FEDFD0B53EC102B70
:104E60009DED0C0B51EC100BFBF789FA53EC1B2B4F
:104E7000FBF77FFA41EC1B0B51EC1A0B53EC1B2B8D
:104E8000FBF7D6F90890CDE908519DED080B53ECDE
:104E90001A2B51EC100BFBF76CFA53EC1B2BFBF7A6
:104EA0006BFA41EC100B00F0A5B90020B6F5801F9D
:104EB0000EDA9FEDE90B53EC102B9DED120B51EC2C
:104EC000100BFBF75CFACDE912016FF034000E46CF
:104ED00000EB2650A0F2FF38C6F31300E04940F083
:104EE0007F6646F040568842D8BF002409DDDD4980
:104EF0008142C8BF012404DC0024A6F5801608F115
:104F00000108D948784400EBC40A13969AED000BC7
:104F100053EC102B9DED120B51EC100BFBF729FA03
:104F20009AED000B41EC1B0B53EC102B9DED120B7B
:104F300051EC100BFBF77CF941EC100B51EC190B09
:104F400053EC102BFBF78DFA41EC1C0B51EC1B0BB7
:104F500053EC1C2BFBF713FA41EC1A0BC3488DEDF5
:104F60000AAB78440A9590ED000B4FF0005040EAF0
:104F7000660000EB84408DED100B00F500201190D1
:104F80009AED000B53EC102B9DED100B51EC100B18
:104F9000FBF7EFF99DED121B53EC112BFBF7ECF92E
:104FA00041EC100B53EC102B9DED0A0B51EC100B48
:104FB000FBF7E5F99DED100B41EC1D0B53EC102BAD
:104FC0009DED0A0B51EC100BFBF7D9F953EC1B2BA1
:104FD000FBF7D2F953EC1D2BFBF7CBF953EC1C2B51
:104FE000FBF7CDF941EC1C0B53EC1A2B51EC1A0BCF
:104FF000FBF7C5F941EC1B0B9D480621B0EE4B0AAF
:10500000F0EE6B0A784400F067FEB0EE40DAF0EEA6
:1050100060DA53EC1B2B51EC1B0BFBF7B0F953EC94
:105020001D2BFBF7ACF99DED0A0B41EC1B0B53EC70
:105030001A2B51EC100BFBF7FBF853EC1C2BFBF776
:105040009EF953EC1B2BFBF7F3F89DED0A0B41EC9B
:105050001B0B53EC102B51EC100BFBF790F941ECB0
:105060001D0B9FED85EB53EC1E2BFBF7E1F853EC8A
:105070001B2BFBF7DDF81090CDE910519DED100BC7
:1050800053EC1E2B51EC100BFBF773F953EC1D2B5B
:10509000FBF76FF953EC1B2BFBF76EF99DED100B33
:1050A00041EC1D0B53EC102B9DED0A0B51EC100B3A
:1050B000FBF765F941EC1B0B53EC1A2B51EC1D0B64
:1050C000FBF75DF99DED100B41EC1A0B53EC102B27
:1050D00051EC1C0BFBF753F953EC1A2BFBF7A8F818
:1050E00041EC1A0B51EC1B0B53EC1A2BFBF7A0F8FD
:1050F0000A90CDE90A519DED0A0B53EC1B2B51ECA4
:10510000100BFBF736F953EC1A2BFBF735F941EC92
:105110001B0B9FED5B0B53EC102B9DED0A0B51EC21
:10512000100BFBF72CF941EC1A0B9FED570B51ECD0
:105130001B0B53EC102BFBF722F941EC1B0B9FEDE3
:10514000540B53EC102B9DED0A0B51EC100BFBF79D
:1051500016F953EC1B2BFBF76BF841EC100B4E4888
:10516000784400EBC40090ED001B51EC100B53ECA5
:10517000112BFBF75DF841EC1B0B4046FBF7E0F908
:10518000CDE90C0153EC1B2B51EC1A0BFBF750F83B
:1051900041EC100B4148784400EBC40451EC100B77
:1051A00094ED001B53EC112BFBF742F89DED0C1B0B
:1051B00053EC112BFBF73CF80890CDE908519DED1D
:1051C0000C0B53EC102B9DED080B51EC100BFBF767
:1051D000D0F894ED001B53EC112BFBF7CAF853ECFD
:1051E0001A2BFBF7C6F853EC1B2BFBF7C5F841EC69
:1051F000100B00BF0498791EB0EE49BAF0EE69BA00
:10520000084308BF9FED269B9DED241B53EC102BFC
:105210008DED001B00959DED240B51EC100BFBF761
:10522000AEF89DED000B41EC1A0B53EC102B9DEDED
:10523000240B51EC100BFBF79CF89DED081B53EC75
:10524000112BFBF79CF853EC1A2BFAF7F1FF2BE02C
:1052500044DF5DF80BAE543E000000000000404308
:105260008E9803007AB60B0078AC0000D2AC000038
:10527000A8AB000000000000000000000000084093
:10528000000000E009C7EE3FFD033ADC09C7EE3F2E
:10529000F5015B14E02F3EBE3CAA0000F6A9000019
:1052A000000000000000F0BF9DED080B41EC1A0B60
:1052B00053EC102B9DED000B51EC100BFBF75FF83E
:1052C000CDE90A019DED0A0B51EC1A0B53EC102BA2
:1052D000FAF7AEFFCDE902010C46AB498C4231DB57
:1052E000611A084318D19DED0A0B53EC102B9DED6C
:1052F000020B51EC100BFBF73CF841EC1C0B9FED43
:10530000A40B51EC1A0B53EC102BFAF791FF53EC52
:105310001C2BFBF77FF92FD2022000F011FE53EC7B
:10532000182B51EC180BFBF72AF8CDE9020119EE06
:10533000900A8DED009B61F31E0003909DED020B22
:10534000FFF7C3BB944A24F00041914214D3934920
:10535000214408437FF4DAAC9DED0A0B53EC102B8B
:105360009DED020B51EC100BFBF703F853EC1A2BDD
:10537000FBF750F97FF6CAAC24F000408849894A0F
:10538000002601EB205182422BDA481C4FF4801199
:1053900021FA00F02044844AC0F30A517A44A1F271
:1053A000FF3192ED000B814A8DED0C0BCA4020EAD3
:1053B0000202C0F3130040F48010C1F1140120FA7E
:1053C00001F60D92002CB8BF76429DED0C0B53EC0C
:1053D000102B9DED0A0B51EC100BFAF7CAFFCDE92B
:1053E0000A019DED0A0B51EC1A0B53EC102BFAF746
:1053F0001FFF9FED6F0B0C90CDE90C5153EC102B60
:105400009DED0C0B51EC100BFAF7B9FF41EC1C0BA6
:105410009FED690B53EC102B9DED0C0B51EC100B19
:10542000FAF7ADFF9DED0A0B41EC180B53EC102B76
:105430009DED0C0B51EC100BFAF79BFF53EC1A2B64
:10544000FAF79AFF9FED5E1B53EC112BFAF797FFCB
:1054500053EC182BFAF7ECFE41EC180B51EC1C0B3B
:1054600053EC182BFAF7E4FECDE902019DED020B97
:1054700053EC1C2B51EC100BFAF77BFF53EC182B61
:10548000FAF77AFF9DED020B41EC180B53EC102B51
:1054900051EC100BFAF773FFCDE90C014A489DED72
:1054A0000C0B0521784400F017FC9DED0C1B51EC12
:1054B000100B53EC112BFAF762FF9DED021B53EC1E
:1054C000112BFAF759FFCDE908019DED020B53ECC2
:1054D000182B51EC100BFAF752FF53EC182BFAF77C
:1054E000A7FE9FED3B0B41EC180B53EC102B9DEDF1
:1054F000080B51EC100BFAF73CFF9DED080B41EC4B
:105500001A0B53EC102B9DED020B51EC100BFAF71C
:1055100036FF53EC1A2BFAF7A4FF53EC182BFAF7CB
:1055200028FF9DED021B53EC112BFAF722FF53ECE1
:105530001B2BFAF721FFCDE9020101EB0650011503
:105540000029C8BF039015DC9DED020B324651ECDB
:10555000100BFBF715F9FFF793F9042808BF00F0CB
:10556000CFFC32469DED020B51EC100BFBF708F916
:10557000CDE902019DED020B51EC190B53EC102B00
:10558000FAF7FDFEFFF79FBA000090400000000010
:10559000FE822B654715973C00CC904000346F3F4E
:1055A00001FCFFFF0000E03F98A80000FFFF0F0094
:1055B00000000000432EE63F396CA80C615C20BE61
:1055C000EF39FAFE422EE63F38A700000000000047
:1055D000000000000000004010B533492DED020B23
:1055E0002DED028B84B09FED2E8B079820F00040AC
:1055F000B0EE481AF0EE681A8842DCBF00209DED3C
:10560000060B35DD294988420CD1069858B94FF070
:10561000010000F095FC53EC182B51EC180BFAF735
:1056200020FF3AE008DB9DED060B53EC102B51EC0C
:10563000100BFAF7FDFD30E068469DED060B00F01B
:1056400077F810F003000ED0012818D09DED021B52
:105650009DED000B022819D000F086FA51EC100BDA
:1056600081F0004119E09DED021B9DED000B012032
:1056700000F0AEFB04B0BDEC028B02B010BD9DED9E
:10568000021B9DED000B00F06FFAF3E7012000F024
:105690009FFB51EC100B81F0004141EC100BE9E74E
:1056A0000000000000000000FB21E93F0000F07F47
:1056B00000B52DED048BB0EE409AF0EE609A83B009
:1056C00051EC190BFBF773F841EC180B18EE100AAC
:1056D00018EE901A8DED008B002818BF01200843AA
:1056E00020F00040C0F17F6000F1E040C00F14D016
:1056F00019EE101A19EE900A8DED009B002918BFC3
:105700000121084320F00040C0F17F6000F1E0403B
:10571000C00F04BF012000F013FCB0EE480A03B034
:10572000F0EE680ABDEC048B00BD00000000000034
:105730002DE9F14F04462DED020B2DED088B96B0AF
:105740009FEDE70B80ED020B1F9EE74826F000451A
:1057500085420ADC9DED1E0B002084ED000B16B087
:10576000BDEC088B03B0BDE8F08FE0489FEDE0ABE7
:105770009FEDE1BBA84247DDE14F9FEDE38B9FED3D
:10578000E49B9DED1E0B53EC1A2B51EC100B002EDD
:105790001CDDFAF7EEFD41EC100BBD4208D053ECD6
:1057A0001B2B51EC100BFAF7E4FDC4E900010BE0F0
:1057B00053EC182B51EC100BFAF7DBFD53EC192BC3
:1057C000FAF7D7FDC4E900010120C8E7FAF730FD78
:1057D00041EC100BBD4208D053EC1B2B51EC100BCD
:1057E000FAF726FDC4E900010BE053EC182B51EC4D
:1057F000100BFAF71DFD53EC192BFAF719FDC4E94C
:1058000000014FF0FF30AAE7C348A84279DB9DEDC5
:105810001E0B51EC100B02F047FE41EC180B9FEDF4
:10582000C00B53EC102BFAF7AAFD9FEDBF1B53ECF6
:10583000112BFAF7FDFCFAF7A1FE0746FAF780FEF6
:1058400041EC190B53EC1A2BFAF799FD53EC182B7A
:10585000FAF792FD41EC180B53EC1B2B51EC190B92
:10586000FAF78DFDDFF8C8A241EC100B4FEA15588E
:105870000125FA4453EC102B51EC180BFAF779FD83
:10588000032DC4E900013DD0C1F30A5005EB4511D9
:10589000A8EB00001139814234DA0AEB051BB0EEA7
:1058A00048AA9BED000BF0EE68AA53EC102B51ECCC
:1058B000190BFAF764FD41EC1B0B51EC1A0B53EC7E
:1058C0001B2BFAF756FD41EC180B51EC1A0B53EC5D
:1058D000182BFAF74EFD53EC1B2BFAF74AFD9BED04
:1058E000020B41EC1A0B53EC102B51EC190BFAF78D
:1058F00046FD53EC1A2BFAF73CFD41EC100B6D1CE6
:10590000B8E70EE0002EA8BF3846BFF628AF94EDEA
:10591000000B51EC100B81F00041C4E9000178420A
:105920001DE7C6F3130040F4801005901E980E90FA
:10593000C6F30A50A0F2F53000F01F074111002015
:105940000C900D907B48C7F12008784400EB810053
:1059500000F114030DA8062619685A68B94022FA06
:1059600008F21143059AD0F800A0A1FB02C50E9AD7
:10597000A1FB022192448C44924534BF4FF0010BAD
:105980004FF0000B50F8042C0CEB0B0E72448C45BE
:1059900034BF012100212944BBF1000F02D0624530
:1059A00002D904E0624502D24FF0010C01E04FF051
:1059B000000C40F808A96144E0E801121B1F761EA4
:1059C000CAD1089800F10050850F0898DDE90967F1
:1059D0008000DDF82C80FAF7B3FD41EC1B0B30465C
:1059E000FAF7BFFD9FED541B53EC112BFAF7C7FCE0
:1059F00041EC180B3846FAF7B4FD9FED511B53EC00
:105A0000112BFAF7BCFC41EC190B4046FAF7A9FD43
:105A10009FED4D1B53EC112BFAF7B1FC41EC1A0B27
:105A200051EC190B53EC1A2BFAF702FC53EC182B20
:105A3000FAF7FEFB53EC1B2BFAF7FAFBCDE9040156
:105A4000002004909DED040B53EC1B2B51EC100B2C
:105A5000FAF78FFC53EC182BFAF78BFC53EC192B4D
:105A6000FAF787FC53EC1A2BFAF786FC9FED381BEC
:105A700053EC112BFAF783FC9FED370B41EC180B1D
:105A800053EC102B9DED040B51EC100BFAF777FC47
:105A900053EC182BFAF7CCFB9FED310B41EC180BB4
:105AA00053EC102B9DED040B51EC100BFAF767FC37
:105AB00053EC182BFAF7BCFB41EC100B1F9810F0BD
:105AC000004F06D06D4251EC100B81F0004141ECCB
:105AD000100B284684ED000B41E60000000000009A
